:100000000C9452000C946F000C946F000C946F00D1
:100010000C946F000C946F000C946F000C946F00A4
:100020000C946F000C946F000C946F000C946F0094
:100030000C946F000C946F000C946F000C946F0084
:100040000C946F000C946F000C946F000C946F0074
:100050000C946F000C946F000C946F000C946F0064
:100060000C946F000C946F004E414E494E49545908
:10007000494E46CDCCCC3D0AD7233C17B7D1387773
:10008000CC2B329595E6241FB14F0A000020410089
:1000900000C84200401C4620BCBE4CCA1B0E5AAED3
:1000A000C59D740011241FBECFEFD8E0DEBFCDBFC9
:1000B00011E0A0E0B1E0E8E7FCE002C005900D929D
:1000C000AC32B107D9F721E0ACE2B1E001C01D923A
:1000D000A035B207E1F70E9413020C943A060C9483
:1000E00000002F923F924F925F926F927F928F9279
:1000F0009F92AF92BF92CF92DF92EF92FF920F93B7
:100100001F93CF93DF931B01092E000CAA0BBB0B8F
:10011000E0E0F1E060E070E000E010E09801CAEBA0
:10012000CC2ECDE4DC2EE12CF12C48015901062E19
:1001300004C0B594A794979487940A94D2F72601A3
:100140003701062E04C075946794579447940A9417
:10015000D2F7B7FD13C0040D151D261D371DC08134
:10016000D1812E01DD0F6608770884199509A6094B
:10017000B709C818D908EA08FB0812C004191509FC
:1001800026093709C081D1812E01DD0F6608770865
:10019000840D951DA61DB71DC80CD91CEA1CFB1C9F
:1001A0006F5F7F4F32966031710509F0BECFFA0163
:1001B000D182C082F10111830083DF91CF911F9121
:1001C0000F91FF90EF90DF90CF90BF90AF909F90F6
:1001D0008F907F906F905F904F903F902F900895F9
:1001E0008F929F92AF92BF92CF92DF92EF92FF9247
:1001F0000F931F93CF93DF9300D000D0CDB7DEB71E
:100200008C016A017B0120E030E044E353E4C70144
:10021000B6010E94FC0318165CF420E030E044EBC9
:1002200053E4C701B6010E9430026B017C01EBCFA1
:1002300020E030E044E353ECC701B6010E949D0288
:1002400087FF0BC020E030E044EB53E4C701B60168
:100250000E9431026B017C01EBCF20E030E044EBE7
:1002600052E4C701B6010E94A20220E030E040E85B
:1002700056E40E9401040E941403DC01CB01AE018C
:100280004F5F5F4FBE016D5F7F4F0E94710060E264
:1002900071E0C8010E94DD05892B19F46B817C8116
:1002A00009C064E271E0C8010E94DD05892B79F480
:1002B00069817A81072E000C880B990B0E944C03F0
:1002C00020E030E040E058E30E94010427C068E2EB
:1002D00071E0C8010E94DD05892BE1F4E980FA8014
:1002E000E114F104B9F06B817C81072E000C880BBE
:1002F000990B0E944C034B015C01B701FF0C880B6A
:10030000990B0E944C039B01AC01C501B4010E94F2
:10031000A20204C060E070E080EC9FE70F900F90B5
:100320000F900F90DF91CF911F910F91FF90EF9061
:10033000DF90CF90BF90AF909F908F900895CF9215
:10034000DF92EF92FF921F93CF93DF9300D0CDB750
:10035000DEB79A8389831BE2C12CD12C7601E98117
:10036000FA819081992339F19B32F1F09D32E1F0CD
:1003700090539A30C0F4BE016F5F7F4FCF010E944F
:100380006E049B01AC011B3229F4C701B6010E9427
:10039000310206C01D3269F4C701B6010E94300265
:1003A0006B017C01DCCF912F3196FA83E983192F01
:1003B000D6CF1CE2D4CFC701B6010F900F90DF91CA
:1003C000CF911F91FF90EF90DF90CF9008958334ED
:1003D00031F08D3359F48EE291E00E949F0110922A
:1003E0002E0110922D0110922C01089520912C01C4
:1003F00030912D012F3131057CF4A9014F5F5F4F02
:1004000050932D0140932C01F901E25DFE4F808352
:10041000FA01E25DFE4F108208950895089508954F
:1004200008950895089582E30E94E7018BE20E94F7
:10043000E70182E30E94E7018EE291E00E949F01C2
:1004400010922E0110922D0110922C012FEF87EAAD
:1004500091E6215080409040E1F700C00000E3CFDA
:100460005058BB27AA270E9448020C94C2030E943E
:10047000B40338F00E94BB0320F039F49F3F19F415
:1004800026F40C94B1030EF4E095E7FB0C94AB0357
:10049000E92F0E94D30358F3BA1762077307840742
:1004A000950720F079F4A6F50C94F5030EF4E09589
:1004B0000B2EBA2FA02D0B01B90190010C01CA011E
:1004C000A0011124FF27591B99F0593F50F4503EC9
:1004D00068F11A16F040A22F232F342F4427585FBB
:1004E000F3CF469537952795A795F0405395C9F7D3
:1004F0007EF41F16BA0B620B730B840BBAF091508B
:10050000A1F0FF0FBB1F661F771F881FC2F70EC029
:10051000BA0F621F731F841F48F4879577956795FC
:10052000B795F7959E3F08F0B0CF9395880F08F0E8
:100530009927EE0F9795879508950E94870308F4F1
:1005400081E008950E94B6020C94C2030E94BB038E
:1005500058F00E94B40340F029F45F3F29F00C9456
:10056000AB0351110C94F6030C94B1030E94D30316
:1005700068F39923B1F3552391F3951B550BBB27D2
:10058000AA2762177307840738F09F5F5F4F220F17
:10059000331F441FAA1FA9F335D00E2E3AF0E0E80E
:1005A00032D091505040E695001CCAF72BD0FE2F58
:1005B00029D0660F771F881FBB1F261737074807EC
:1005C000AB07B0E809F0BB0B802DBF01FF279358A4
:1005D0005F4F3AF09E3F510578F00C94AB030C94BA
:1005E000F6035F3FE4F3983ED4F3869577956795DD
:1005F000B795F7959F5FC9F7880F911D96958795D9
:1006000097F90895E1E0660F771F881FBB1F6217F7
:1006100073078407BA0720F0621B730B840BBA0BB5
:10062000EE1F88F7E09508950E941B036894B111AE
:100630000C94F60308950E94DB0388F09F5798F00E
:10064000B92F9927B751B0F0E1F0660F771F881FD7
:10065000991F1AF0BA95C9F714C0B13091F00E94F1
:10066000F503B1E008950C94F503672F782F8827E0
:10067000B85F39F0B93FCCF3869577956795B39518
:10068000D9F73EF490958095709561957F4F8F4F87
:100690009F4F0895E89409C097FB3EF4909580958C
:1006A000709561957F4F8F4F9F4F9923A9F0F92F38
:1006B00096E9BB279395F695879577956795B795B6
:1006C000F111F8CFFAF4BB0F11F460FF1BC06F5F9C
:1006D0007F4F8F4F9F4F16C0882311F096E911C0AE
:1006E000772321F09EE8872F762F05C0662371F0CF
:1006F00096E8862F70E060E02AF09A95660F771FE3
:10070000881FDAF7880F9695879597F90895990FBE
:100710000008550FAA0BE0E8FEEF16161706E807CB
:10072000F907C0F012161306E407F50798F0621BEC
:10073000730B840B950B39F40A2661F0232B242BC1
:10074000252B21F408950A2609F4A140A6958FEFE0
:10075000811D811D089597F99F6780E870E060E032
:1007600008959FEF80EC089500240A94161617064A
:1007700018060906089500240A9412161306140692
:1007800005060895092E0394000C11F4882352F0F5
:10079000BB0F40F4BF2B11F460FF04C06F5F7F4FAD
:1007A0008F4F9F4F089557FD9058440F551F59F094
:1007B0005F3F71F04795880F97FB991F61F09F3F4E
:1007C00079F087950895121613061406551FF2CF77
:1007D0004695F1DF08C0161617061806991FF1CFC7
:1007E00086957105610508940895E894BB276627EE
:1007F0007727CB0197F908950E94870308F48FEFBC
:1008000008950E9414040C94C2030E94B40338F0AB
:100810000E94BB0320F0952311F00C94AB030C94C1
:10082000B10311240C94F6030E94D30370F3959F37
:10083000C1F3950F50E0551F629FF001729FBB27D7
:10084000F00DB11D639FAA27F00DB11DAA1F649F73
:100850006627B00DA11D661F829F2227B00DA11D26
:10086000621F739FB00DA11D621F839FA00D611DAC
:10087000221F749F3327A00D611D231F849F600DCD
:10088000211D822F762F6A2F11249F5750409AF0F6
:10089000F1F088234AF0EE0FFF1FBB1F661F771F82
:1008A000881F91505040A9F79E3F510580F00C944D
:1008B000AB030C94F6035F3FE4F3983ED4F38695C4
:1008C00077956795B795F795E7959F5FC1F7FE2BED
:1008D000880F911D9695879597F90895A0E0B0E04F
:1008E000E4E7F4E00C94FA05EC016B016115710585
:1008F00019F0FB01918380837E01FFEFEF1AFF0A5D
:100900000881802F90E00E94BC05892B11F0E7013F
:10091000F3CF0D3239F47E0182E0E80EF11C09813B
:1009200011E008C00B3229F47E0192E0E90EF11CBF
:10093000098110E0E701219743E050E060E770E0B3
:10094000CE010E94C505892BC1F4239645E050E0F5
:100950006BE670E0CE010E94C505892B09F425964F
:10096000C114D10419F0F601D183C0831111F6C06E
:1009700060E070E080E89FE7FAC043E050E068E69E
:1009800070E0CE010E94C505892B59F4C114D10431
:1009900009F4E9C0F2E0EF0EF11CF601F182E08209
:1009A000E2C020E030E0A901C0E0D0E0F70180ED36
:1009B000A82EA00E89E08A1530F1912F9260B92EF1
:1009C000812F887012FF04C0811124C0219622C09B
:1009D00081112197A5E0B0E00E94E905DC01CB017F
:1009E000880F991FAA1FBB1F9C01AD012A0D311D45
:1009F000411D511D283989E93807480789E1580701
:100A000048F0166006C09EEFA9120AC013FD40C050
:100A10001860B12E8FEFE81AF80A00811B2DC6CF9F
:100A2000802F8F7D8534A1F580818D3211F4106186
:100A300006C08B3221F0319661E070E004C0818104
:100A4000329662E070E080538A3018F0E61BF70BB4
:100A50001FC060E070E060389CE079075CF4DB0167
:100A6000AA0FBB1FAA0FBB1F6A0F7B1F660F771F42
:100A7000680F711D3196DF0111978C9180538A3078
:100A800050F314FF03C0719561957109C60FD71F0C
:100A900011FF08C0C114D10429F0CF010197F6015C
:100AA00091838083CA01B9010E944A03212F2370D8
:100AB000233019F04B015C0106C04B015C01B7FA11
:100AC000B094B7F8B09420E030E0A901C501B401BA
:100AD0000E949D02882309F43EC0D7FF06C0D1952D
:100AE000C195D10907E810E002C00FE910E06801E4
:100AF000F8E1CF1AD10890E2E92EF12CCE15DF05EE
:100B000074F0F8012591359145915491C501B401D6
:100B10000E9401044B015C01CE19DF09EFCF0450A4
:100B20001109F594E7940C151D0541F78A2D880FDE
:100B30008B2D881F8F3F49F020E030E0A901C501CF
:100B4000B4010E949D02811106C082E290E0909360
:100B50004F0180934E01C501B40109C060E070E00F
:100B600080E89FEF04C060E070E080EC9FE7CDB7C5
:100B7000DEB7ECE00C94160691110C94E605803279
:100B800019F089508550C8F70895FB01DC014150E8
:100B9000504088F08D9181341CF08B350CF4805ED0
:100BA000659161341CF06B350CF4605E861B61113D
:100BB00071F3990B0895881BFCCFFB01DC018D912B
:100BC000019080190110D9F3990B0895992788276E
:100BD00008950E942B06A59F900DB49F900DA49F91
:100BE000800D911D112408952F923F924F925F9294
:100BF0006F927F928F929F92AF92BF92CF92DF922D
:100C0000EF92FF920F931F93CF93DF93CDB7DEB791
:100C1000CA1BDB0B0FB6F894DEBF0FBECDBF099425
:100C20002A88398848885F846E847D848C849B847C
:100C3000AA84B984C884DF80EE80FD800C811B818A
:100C4000AA81B981CE0FD11D0FB6F894DEBF0FBEB9
:100C5000CDBFED010895A29FB001B39FC001A39F36
:100C6000700D811D1124911DB29F700D811D1124E5
:080C7000911D0895F894FFCFD7
:100C78000020DC12F80910058A024501A300510082
:100C8800280014000A00050002000100000000000E
:0C0C980073696E00636F730074616E007E
:00000001FF
