:100000000C9434000C9451000C9451000C94510049
:100010000C9451000C9451000C9451000C9451001C
:100020000C9451000C9451000C9451000C9451000C
:100030000C9451000C9451000C9453000C945100FA
:100040000C9451000C9451000C9451000C945100EC
:100050000C9451000C9451000C9451000C945100DC
:100060000C9451000C94510011241FBECFEFD8E026
:10007000DEBFCDBF11E0A0E0B1E0E2E4F4E002C0F9
:1000800005900D92A630B107D9F721E0A6E0B1E0C6
:1000900001C01D92A931B207E1F70E94A4010C949E
:1000A0001F020C9400001F920F920FB60F921124A2
:1000B0008F939F93AF93BF938091150190911601F9
:1000C000A0911701B09118010196A11DB11D809357
:1000D000150190931601A0931701B0931801BF91D9
:1000E000AF919F918F910F900FBE0F901F90189519
:1000F000F89460911501709116018091170190910B
:100100001801789408958AB18C6F8AB984B18F6090
:1001100084B984B18F7C84B985B1806385B98BB192
:10012000837C8BB98BB18F738BB985B1807F85B997
:1001300082E084BD83E085BD89EF87BDEEE6F0E017
:10014000808182608083089580FF02C05A9A01C036
:100150005A9881FF02C05B9A01C05B9882FF02C07F
:100160005C9A01C05C9883FF02C05D9A01C05D98F3
:100170008BB18F738BB985B1807F85B9623081F087
:1001800030F4662359F0613081F45F9A0EC0643018
:1001900059F040F0653049F42B9A07C05E9A05C0CB
:1001A000289A03C0299A01C02A9A8FED9EE20197EE
:1001B000F1F700C00000623081F028F4662349F0B6
:1001C000613049F00895643061F048F0653059F0CD
:1001D00008955E9808955F9808952898089529983D
:1001E00008952A9808952B980895CF93809114012B
:1001F000CAE06C2F0E94EB0160E00E94A400809195
:1002000014016C2F0E94EB01892F61E00E94A40071
:10021000809113016C2F0E94EB0162E00E94A40008
:10022000809113016C2F0E94EB01892F63E00E94E3
:10023000A400809112016C2F0E94EB0164E00E94E7
:10024000A400809112016C2F0E94EB01892F65E0C0
:10025000CF910C94A400EF92FF920F931F93CF9332
:10026000DF9383B1D1E0482F4071E42E84FFD0E0CA
:1002700083B1C1E0582F5072F52E85FFC0E00E9477
:1002800078008B019C01E11029C080910101882335
:1002900029F180910A0190910B01A0910C01B0917C
:1002A0000D01B901A801481B590B6A0B7B0B493C96
:1002B00051056105710590F08091140190E001965F
:1002C00068E170E00E94F7018093140100930A0135
:1002D00010930B0120930C0130930D01F11029C0F4
:1002E00080910001882329F18091060190910701F6
:1002F000A0910801B0910901B901A801481B590B4F
:100300006A0B7B0B493C51056105710590F08091AA
:10031000130190E001966CE370E00E94F701809376
:1003200013010093060110930701209308013093F5
:100330000901D0930101C0930001DF91CF911F917A
:100340000F91FF90EF9008950E94830078940E948F
:10035000780000910E0110910F0120911001309151
:1003600011016B017C01C01AD10AE20AF30A48EEBE
:10037000C41643E0D406E104F10440F160930E0199
:1003800070930F01809310019093110180911201DD
:100390008F5F8C3318F48093120107C01092120102
:1003A000809113018F5F80931301809113018C332F
:1003B00038F010921301809114018F5F8093140123
:1003C00080911401883110F0109214010E942B01C9
:1003D0000E94F500BCCF991B79E004C0991F9617C5
:1003E00008F0961B881F7A95C9F78095089597FBAA
:1003F000072E16F4009407D077FD09D00E940B0257
:1004000007FC05D03EF4909581959F4F0895709517
:1004100061957F4F0895AA1BBB1B51E107C0AA1F1E
:10042000BB1FA617B70710F0A61BB70B881F991F95
:100430005A95A9F780959095BC01CD010895F8943F
:02044000FFCFEC
:060442000101C8000000EA
:00000001FF
